{
  "address": "0x5FbDB2315678afecb367f032d93F642f64180aa3",
  "abi": [
    {
      "anonymous": false,
      "inputs": [
        {
          "indexed": false,
          "internalType": "uint256",
          "name": "id",
          "type": "uint256"
        },
        {
          "indexed": false,
          "internalType": "string",
          "name": "content",
          "type": "string"
        },
        {
          "indexed": false,
          "internalType": "address",
          "name": "from",
          "type": "address"
        },
        {
          "indexed": false,
          "internalType": "address",
          "name": "to",
          "type": "address"
        },
        {
          "indexed": false,
          "internalType": "uint256",
          "name": "createdAt",
          "type": "uint256"
        }
      ],
      "name": "MessageSent",
      "type": "event"
    },
    {
      "anonymous": false,
      "inputs": [
        {
          "indexed": false,
          "internalType": "uint256",
          "name": "id",
          "type": "uint256"
        },
        {
          "indexed": true,
          "internalType": "address",
          "name": "author",
          "type": "address"
        },
        {
          "indexed": false,
          "internalType": "string",
          "name": "content",
          "type": "string"
        },
        {
          "indexed": false,
          "internalType": "uint256",
          "name": "createdAt",
          "type": "uint256"
        }
      ],
      "name": "TweetSent",
      "type": "event"
    },
    {
      "inputs": [
        {
          "internalType": "address",
          "name": "_followed",
          "type": "address"
        }
      ],
      "name": "follow",
      "outputs": [],
      "stateMutability": "nonpayable",
      "type": "function"
    },
    {
      "inputs": [
        {
          "internalType": "uint256",
          "name": "count",
          "type": "uint256"
        }
      ],
      "name": "getLatestTweets",
      "outputs": [
        {
          "components": [
            {
              "internalType": "uint256",
              "name": "id",
              "type": "uint256"
            },
            {
              "internalType": "address",
              "name": "author",
              "type": "address"
            },
            {
              "internalType": "string",
              "name": "content",
              "type": "string"
            },
            {
              "internalType": "uint256",
              "name": "createdAt",
              "type": "uint256"
            }
          ],
          "internalType": "struct Twitter.Tweet[]",
          "name": "",
          "type": "tuple[]"
        }
      ],
      "stateMutability": "view",
      "type": "function"
    },
    {
      "inputs": [
        {
          "internalType": "address",
          "name": "_user",
          "type": "address"
        },
        {
          "internalType": "uint256",
          "name": "count",
          "type": "uint256"
        }
      ],
      "name": "getTweetOf",
      "outputs": [
        {
          "components": [
            {
              "internalType": "uint256",
              "name": "id",
              "type": "uint256"
            },
            {
              "internalType": "address",
              "name": "author",
              "type": "address"
            },
            {
              "internalType": "string",
              "name": "content",
              "type": "string"
            },
            {
              "internalType": "uint256",
              "name": "createdAt",
              "type": "uint256"
            }
          ],
          "internalType": "struct Twitter.Tweet[]",
          "name": "",
          "type": "tuple[]"
        }
      ],
      "stateMutability": "view",
      "type": "function"
    },
    {
      "inputs": [
        {
          "internalType": "string",
          "name": "_content",
          "type": "string"
        },
        {
          "internalType": "address",
          "name": "_to",
          "type": "address"
        }
      ],
      "name": "sendMessage",
      "outputs": [],
      "stateMutability": "nonpayable",
      "type": "function"
    },
    {
      "inputs": [
        {
          "internalType": "string",
          "name": "_content",
          "type": "string"
        },
        {
          "internalType": "address",
          "name": "_from",
          "type": "address"
        },
        {
          "internalType": "address",
          "name": "_to",
          "type": "address"
        }
      ],
      "name": "sendMessageFrom",
      "outputs": [],
      "stateMutability": "nonpayable",
      "type": "function"
    },
    {
      "inputs": [
        {
          "internalType": "string",
          "name": "_content",
          "type": "string"
        }
      ],
      "name": "tweet",
      "outputs": [],
      "stateMutability": "nonpayable",
      "type": "function"
    },
    {
      "inputs": [
        {
          "internalType": "address",
          "name": "_from",
          "type": "address"
        },
        {
          "internalType": "string",
          "name": "_content",
          "type": "string"
        }
      ],
      "name": "tweetFrom",
      "outputs": [],
      "stateMutability": "nonpayable",
      "type": "function"
    }
  ],
  "transactionHash": "0xcf27065eb5f955080fe438ad963ec0d4c056941fd6e90e10e3a52c862cff7af6",
  "args": [],
  "numDeployments": 1,
  "solcInputHash": "2e6db30781adfa0b6b11c5336a16a234",
  "bytecode": "0x608060405234801561001057600080fd5b50611811806100206000396000f3fe608060405234801561001057600080fd5b506004361061007d5760003560e01c8063597d31221161005b578063597d3122146100ea578063c48d6d5e1461011a578063c6bc463c14610136578063fb46d4c5146101525761007d565b8063179a21e8146100825780634dbf27cc1461009e5780634dc0a687146100ba575b600080fd5b61009c60048036038101906100979190610db0565b61016e565b005b6100b860048036038101906100b39190610e24565b610295565b005b6100d460048036038101906100cf9190610e87565b610338565b6040516100e19190611087565b60405180910390f35b61010460048036038101906100ff91906110a9565b610541565b6040516101119190611087565b60405180910390f35b610134600480360381019061012f91906110e9565b610790565b005b610150600480360381019061014b9190611149565b6107e4565b005b61016c600480360381019061016791906111a9565b610909565b005b3360011515600460008373ffffffffffffffffffffffffffffffffffffffff1673ffffffffffffffffffffffffffffffffffffffff16815260200190815260200160002060003373ffffffffffffffffffffffffffffffffffffffff1673ffffffffffffffffffffffffffffffffffffffff16815260200190815260200160002060009054906101000a900460ff1615151461023f576040517f08c379a000000000000000000000000000000000000000000000000000000000815260040161023690611253565b60405180910390fd5b61028e85858080601f016020809104026020016040519081016040528093929190818152602001838380828437600081840152601f19601f82011690508083019250505050505050848461095b565b5050505050565b600260003373ffffffffffffffffffffffffffffffffffffffff1673ffffffffffffffffffffffffffffffffffffffff168152602001908152602001600020819080600181540180825580915050600190039060005260206000200160009091909190916101000a81548173ffffffffffffffffffffffffffffffffffffffff021916908373ffffffffffffffffffffffffffffffffffffffff16021790555050565b606060008211801561034c57506005548211155b61038b576040517f08c379a0000000000000000000000000000000000000000000000000000000008152600401610382906112e5565b60405180910390fd5b60008267ffffffffffffffff8111156103a7576103a6611305565b5b6040519080825280602002602001820160405280156103e057816020015b6103cd610ca5565b8152602001906001900390816103c55790505b5090506000836005546103f39190611363565b90505b60055481101561053757600080600083815260200190815260200160002090506040518060800160405280826000015481526020018260010160009054906101000a900473ffffffffffffffffffffffffffffffffffffffff1673ffffffffffffffffffffffffffffffffffffffff16815260200182600201805461047a906113c6565b80601f01602080910402602001604051908101604052809291908181526020018280546104a6906113c6565b80156104f35780601f106104c8576101008083540402835291602001916104f3565b820191906000526020600020905b8154815290600101906020018083116104d657829003601f168201915b505050505081526020018260030154815250838381518110610518576105176113f7565b5b602002602001018190525050808061052f90611426565b9150506103f6565b5080915050919050565b60606000600160008573ffffffffffffffffffffffffffffffffffffffff1673ffffffffffffffffffffffffffffffffffffffff168152602001908152602001600020905060008311801561059a575080805490508311155b6105d9576040517f08c379a00000000000000000000000000000000000000000000000000000000081526004016105d0906112e5565b60405180910390fd5b60008367ffffffffffffffff8111156105f5576105f4611305565b5b60405190808252806020026020018201604052801561062e57816020015b61061b610ca5565b8152602001906001900390816106135790505b50905060008483805490506106439190611363565b90505b60055481101561078757600080600083815260200190815260200160002090506040518060800160405280826000015481526020018260010160009054906101000a900473ffffffffffffffffffffffffffffffffffffffff1673ffffffffffffffffffffffffffffffffffffffff1681526020018260020180546106ca906113c6565b80601f01602080910402602001604051908101604052809291908181526020018280546106f6906113c6565b80156107435780601f1061071857610100808354040283529160200191610743565b820191906000526020600020905b81548152906001019060200180831161072657829003601f168201915b505050505081526020018260030154815250838381518110610768576107676113f7565b5b602002602001018190525050808061077f90611426565b915050610646565b50505092915050565b6107df83838080601f016020809104026020016040519081016040528093929190818152602001838380828437600081840152601f19601f82011690508083019250505050505050338361095b565b505050565b3360011515600460008373ffffffffffffffffffffffffffffffffffffffff1673ffffffffffffffffffffffffffffffffffffffff16815260200190815260200160002060003373ffffffffffffffffffffffffffffffffffffffff1673ffffffffffffffffffffffffffffffffffffffff16815260200190815260200160002060009054906101000a900460ff161515146108b5576040517f08c379a00000000000000000000000000000000000000000000000000000000081526004016108ac90611253565b60405180910390fd5b6109038484848080601f016020809104026020016040519081016040528093929190818152602001838380828437600081840152601f19601f82011690508083019250505050505050610b0c565b50505050565b6109573383838080601f016020809104026020016040519081016040528093929190818152602001838380828437600081840152601f19601f82011690508083019250505050505050610b0c565b5050565b60006006549050600360008281526020019081526020016000206040518060a0016040528060065481526020018681526020018573ffffffffffffffffffffffffffffffffffffffff1681526020018473ffffffffffffffffffffffffffffffffffffffff168152602001428152509080600181540180825580915050600190039060005260206000209060050201600090919091909150600082015181600001556020820151816001019081610a12919061161a565b5060408201518160020160006101000a81548173ffffffffffffffffffffffffffffffffffffffff021916908373ffffffffffffffffffffffffffffffffffffffff16021790555060608201518160030160006101000a81548173ffffffffffffffffffffffffffffffffffffffff021916908373ffffffffffffffffffffffffffffffffffffffff1602179055506080820151816004015550507f053227a5bdcc96607ea58ea40dd04c9394ddebceb1cd539ad1289d8b074bc4eb60065485858542604051610ae6959493929190611743565b60405180910390a160066000815480929190610b0190611426565b919050555050505050565b604051806080016040528060055481526020018373ffffffffffffffffffffffffffffffffffffffff1681526020018281526020014281525060008060055481526020019081526020016000206000820151816000015560208201518160010160006101000a81548173ffffffffffffffffffffffffffffffffffffffff021916908373ffffffffffffffffffffffffffffffffffffffff1602179055506040820151816002019081610bbf919061161a565b5060608201518160030155905050600160008373ffffffffffffffffffffffffffffffffffffffff1673ffffffffffffffffffffffffffffffffffffffff16815260200190815260200160002060055490806001815401808255809150506001900390600052602060002001600090919091909150558173ffffffffffffffffffffffffffffffffffffffff167f8d6b17b300471dd2e4fef05e2e70f50c236372b9a4aaf37cdb52644d99bc21a76005548342604051610c819392919061179d565b60405180910390a260056000815480929190610c9c90611426565b91905055505050565b604051806080016040528060008152602001600073ffffffffffffffffffffffffffffffffffffffff16815260200160608152602001600081525090565b600080fd5b600080fd5b600080fd5b600080fd5b600080fd5b60008083601f840112610d1257610d11610ced565b5b8235905067ffffffffffffffff811115610d2f57610d2e610cf2565b5b602083019150836001820283011115610d4b57610d4a610cf7565b5b9250929050565b600073ffffffffffffffffffffffffffffffffffffffff82169050919050565b6000610d7d82610d52565b9050919050565b610d8d81610d72565b8114610d9857600080fd5b50565b600081359050610daa81610d84565b92915050565b60008060008060608587031215610dca57610dc9610ce3565b5b600085013567ffffffffffffffff811115610de857610de7610ce8565b5b610df487828801610cfc565b94509450506020610e0787828801610d9b565b9250506040610e1887828801610d9b565b91505092959194509250565b600060208284031215610e3a57610e39610ce3565b5b6000610e4884828501610d9b565b91505092915050565b6000819050919050565b610e6481610e51565b8114610e6f57600080fd5b50565b600081359050610e8181610e5b565b92915050565b600060208284031215610e9d57610e9c610ce3565b5b6000610eab84828501610e72565b91505092915050565b600081519050919050565b600082825260208201905092915050565b6000819050602082019050919050565b610ee981610e51565b82525050565b610ef881610d72565b82525050565b600081519050919050565b600082825260208201905092915050565b60005b83811015610f38578082015181840152602081019050610f1d565b60008484015250505050565b6000601f19601f8301169050919050565b6000610f6082610efe565b610f6a8185610f09565b9350610f7a818560208601610f1a565b610f8381610f44565b840191505092915050565b6000608083016000830151610fa66000860182610ee0565b506020830151610fb96020860182610eef565b5060408301518482036040860152610fd18282610f55565b9150506060830151610fe66060860182610ee0565b508091505092915050565b6000610ffd8383610f8e565b905092915050565b6000602082019050919050565b600061101d82610eb4565b6110278185610ebf565b93508360208202850161103985610ed0565b8060005b8581101561107557848403895281516110568582610ff1565b945061106183611005565b925060208a0199505060018101905061103d565b50829750879550505050505092915050565b600060208201905081810360008301526110a18184611012565b905092915050565b600080604083850312156110c0576110bf610ce3565b5b60006110ce85828601610d9b565b92505060206110df85828601610e72565b9150509250929050565b60008060006040848603121561110257611101610ce3565b5b600084013567ffffffffffffffff8111156111205761111f610ce8565b5b61112c86828701610cfc565b9350935050602061113f86828701610d9b565b9150509250925092565b60008060006040848603121561116257611161610ce3565b5b600061117086828701610d9b565b935050602084013567ffffffffffffffff81111561119157611190610ce8565b5b61119d86828701610cfc565b92509250509250925092565b600080602083850312156111c0576111bf610ce3565b5b600083013567ffffffffffffffff8111156111de576111dd610ce8565b5b6111ea85828601610cfc565b92509250509250929050565b600082825260208201905092915050565b7f6f70657261746f7273206e6f7420617574686f72697a65640000000000000000600082015250565b600061123d6018836111f6565b915061124882611207565b602082019050919050565b6000602082019050818103600083015261126c81611230565b9050919050565b7f746f6f20666577206f7220746f6f206d616e792074776565747320746f20726560008201527f7475726e00000000000000000000000000000000000000000000000000000000602082015250565b60006112cf6024836111f6565b91506112da82611273565b604082019050919050565b600060208201905081810360008301526112fe816112c2565b9050919050565b7f4e487b7100000000000000000000000000000000000000000000000000000000600052604160045260246000fd5b7f4e487b7100000000000000000000000000000000000000000000000000000000600052601160045260246000fd5b600061136e82610e51565b915061137983610e51565b925082820390508181111561139157611390611334565b5b92915050565b7f4e487b7100000000000000000000000000000000000000000000000000000000600052602260045260246000fd5b600060028204905060018216806113de57607f821691505b6020821081036113f1576113f0611397565b5b50919050565b7f4e487b7100000000000000000000000000000000000000000000000000000000600052603260045260246000fd5b600061143182610e51565b91507fffffffffffffffffffffffffffffffffffffffffffffffffffffffffffffffff820361146357611462611334565b5b600182019050919050565b60008190508160005260206000209050919050565b60006020601f8301049050919050565b600082821b905092915050565b6000600883026114d07fffffffffffffffffffffffffffffffffffffffffffffffffffffffffffffffff82611493565b6114da8683611493565b95508019841693508086168417925050509392505050565b6000819050919050565b600061151761151261150d84610e51565b6114f2565b610e51565b9050919050565b6000819050919050565b611531836114fc565b61154561153d8261151e565b8484546114a0565b825550505050565b600090565b61155a61154d565b611565818484611528565b505050565b5b818110156115895761157e600082611552565b60018101905061156b565b5050565b601f8211156115ce5761159f8161146e565b6115a884611483565b810160208510156115b7578190505b6115cb6115c385611483565b83018261156a565b50505b505050565b600082821c905092915050565b60006115f1600019846008026115d3565b1980831691505092915050565b600061160a83836115e0565b9150826002028217905092915050565b61162382610efe565b67ffffffffffffffff81111561163c5761163b611305565b5b61164682546113c6565b61165182828561158d565b600060209050601f8311600181146116845760008415611672578287015190505b61167c85826115fe565b8655506116e4565b601f1984166116928661146e565b60005b828110156116ba57848901518255600182019150602085019450602081019050611695565b868310156116d757848901516116d3601f8916826115e0565b8355505b6001600288020188555050505b505050505050565b6116f581610e51565b82525050565b600061170682610efe565b61171081856111f6565b9350611720818560208601610f1a565b61172981610f44565b840191505092915050565b61173d81610d72565b82525050565b600060a08201905061175860008301886116ec565b818103602083015261176a81876116fb565b90506117796040830186611734565b6117866060830185611734565b61179360808301846116ec565b9695505050505050565b60006060820190506117b260008301866116ec565b81810360208301526117c481856116fb565b90506117d360408301846116ec565b94935050505056fea2646970667358221220e021d7811e9dbf4dca2250786ab71300f59824d5ff24b5aa1b38cd3f18b5f4c664736f6c63430008110033",
  "devdoc": {
    "kind": "dev",
    "methods": {},
    "version": 1
  },
  "userdoc": {
    "kind": "user",
    "methods": {},
    "version": 1
  },
  "storageLayout": {
    "storage": [
      {
        "astId": 26,
        "contract": "contracts/Twitter.sol:Twitter",
        "label": "tweets",
        "offset": 0,
        "slot": "0",
        "type": "t_mapping(t_uint256,t_struct(Tweet)10_storage)"
      },
      {
        "astId": 31,
        "contract": "contracts/Twitter.sol:Twitter",
        "label": "tweetsOf",
        "offset": 0,
        "slot": "1",
        "type": "t_mapping(t_address,t_array(t_uint256)dyn_storage)"
      },
      {
        "astId": 36,
        "contract": "contracts/Twitter.sol:Twitter",
        "label": "following",
        "offset": 0,
        "slot": "2",
        "type": "t_mapping(t_address,t_array(t_address)dyn_storage)"
      },
      {
        "astId": 42,
        "contract": "contracts/Twitter.sol:Twitter",
        "label": "conversations",
        "offset": 0,
        "slot": "3",
        "type": "t_mapping(t_uint256,t_array(t_struct(Message)21_storage)dyn_storage)"
      },
      {
        "astId": 48,
        "contract": "contracts/Twitter.sol:Twitter",
        "label": "operators",
        "offset": 0,
        "slot": "4",
        "type": "t_mapping(t_address,t_mapping(t_address,t_bool))"
      },
      {
        "astId": 50,
        "contract": "contracts/Twitter.sol:Twitter",
        "label": "nextTweetId",
        "offset": 0,
        "slot": "5",
        "type": "t_uint256"
      },
      {
        "astId": 52,
        "contract": "contracts/Twitter.sol:Twitter",
        "label": "nextMessageId",
        "offset": 0,
        "slot": "6",
        "type": "t_uint256"
      }
    ],
    "types": {
      "t_address": {
        "encoding": "inplace",
        "label": "address",
        "numberOfBytes": "20"
      },
      "t_array(t_address)dyn_storage": {
        "base": "t_address",
        "encoding": "dynamic_array",
        "label": "address[]",
        "numberOfBytes": "32"
      },
      "t_array(t_struct(Message)21_storage)dyn_storage": {
        "base": "t_struct(Message)21_storage",
        "encoding": "dynamic_array",
        "label": "struct Twitter.Message[]",
        "numberOfBytes": "32"
      },
      "t_array(t_uint256)dyn_storage": {
        "base": "t_uint256",
        "encoding": "dynamic_array",
        "label": "uint256[]",
        "numberOfBytes": "32"
      },
      "t_bool": {
        "encoding": "inplace",
        "label": "bool",
        "numberOfBytes": "1"
      },
      "t_mapping(t_address,t_array(t_address)dyn_storage)": {
        "encoding": "mapping",
        "key": "t_address",
        "label": "mapping(address => address[])",
        "numberOfBytes": "32",
        "value": "t_array(t_address)dyn_storage"
      },
      "t_mapping(t_address,t_array(t_uint256)dyn_storage)": {
        "encoding": "mapping",
        "key": "t_address",
        "label": "mapping(address => uint256[])",
        "numberOfBytes": "32",
        "value": "t_array(t_uint256)dyn_storage"
      },
      "t_mapping(t_address,t_bool)": {
        "encoding": "mapping",
        "key": "t_address",
        "label": "mapping(address => bool)",
        "numberOfBytes": "32",
        "value": "t_bool"
      },
      "t_mapping(t_address,t_mapping(t_address,t_bool))": {
        "encoding": "mapping",
        "key": "t_address",
        "label": "mapping(address => mapping(address => bool))",
        "numberOfBytes": "32",
        "value": "t_mapping(t_address,t_bool)"
      },
      "t_mapping(t_uint256,t_array(t_struct(Message)21_storage)dyn_storage)": {
        "encoding": "mapping",
        "key": "t_uint256",
        "label": "mapping(uint256 => struct Twitter.Message[])",
        "numberOfBytes": "32",
        "value": "t_array(t_struct(Message)21_storage)dyn_storage"
      },
      "t_mapping(t_uint256,t_struct(Tweet)10_storage)": {
        "encoding": "mapping",
        "key": "t_uint256",
        "label": "mapping(uint256 => struct Twitter.Tweet)",
        "numberOfBytes": "32",
        "value": "t_struct(Tweet)10_storage"
      },
      "t_string_storage": {
        "encoding": "bytes",
        "label": "string",
        "numberOfBytes": "32"
      },
      "t_struct(Message)21_storage": {
        "encoding": "inplace",
        "label": "struct Twitter.Message",
        "members": [
          {
            "astId": 12,
            "contract": "contracts/Twitter.sol:Twitter",
            "label": "id",
            "offset": 0,
            "slot": "0",
            "type": "t_uint256"
          },
          {
            "astId": 14,
            "contract": "contracts/Twitter.sol:Twitter",
            "label": "content",
            "offset": 0,
            "slot": "1",
            "type": "t_string_storage"
          },
          {
            "astId": 16,
            "contract": "contracts/Twitter.sol:Twitter",
            "label": "from",
            "offset": 0,
            "slot": "2",
            "type": "t_address"
          },
          {
            "astId": 18,
            "contract": "contracts/Twitter.sol:Twitter",
            "label": "to",
            "offset": 0,
            "slot": "3",
            "type": "t_address"
          },
          {
            "astId": 20,
            "contract": "contracts/Twitter.sol:Twitter",
            "label": "createdAt",
            "offset": 0,
            "slot": "4",
            "type": "t_uint256"
          }
        ],
        "numberOfBytes": "160"
      },
      "t_struct(Tweet)10_storage": {
        "encoding": "inplace",
        "label": "struct Twitter.Tweet",
        "members": [
          {
            "astId": 3,
            "contract": "contracts/Twitter.sol:Twitter",
            "label": "id",
            "offset": 0,
            "slot": "0",
            "type": "t_uint256"
          },
          {
            "astId": 5,
            "contract": "contracts/Twitter.sol:Twitter",
            "label": "author",
            "offset": 0,
            "slot": "1",
            "type": "t_address"
          },
          {
            "astId": 7,
            "contract": "contracts/Twitter.sol:Twitter",
            "label": "content",
            "offset": 0,
            "slot": "2",
            "type": "t_string_storage"
          },
          {
            "astId": 9,
            "contract": "contracts/Twitter.sol:Twitter",
            "label": "createdAt",
            "offset": 0,
            "slot": "3",
            "type": "t_uint256"
          }
        ],
        "numberOfBytes": "128"
      },
      "t_uint256": {
        "encoding": "inplace",
        "label": "uint256",
        "numberOfBytes": "32"
      }
    }
  }
}